{"ast":null,"code":"/*\nThis file is part of web3.js.\n\nweb3.js is free software: you can redistribute it and/or modify\nit under the terms of the GNU Lesser General Public License as published by\nthe Free Software Foundation, either version 3 of the License, or\n(at your option) any later version.\n\nweb3.js is distributed in the hope that it will be useful,\nbut WITHOUT ANY WARRANTY; without even the implied warranty of\nMERCHANTABILITY or FITNESS FOR A PARTICULAR PURPOSE.  See the\nGNU Lesser General Public License for more details.\n\nYou should have received a copy of the GNU Lesser General Public License\nalong with web3.js.  If not, see <http://www.gnu.org/licenses/>.\n*/\nvar __awaiter = this && this.__awaiter || function (thisArg, _arguments, P, generator) {\n  function adopt(value) {\n    return value instanceof P ? value : new P(function (resolve) {\n      resolve(value);\n    });\n  }\n  return new (P || (P = Promise))(function (resolve, reject) {\n    function fulfilled(value) {\n      try {\n        step(generator.next(value));\n      } catch (e) {\n        reject(e);\n      }\n    }\n    function rejected(value) {\n      try {\n        step(generator[\"throw\"](value));\n      } catch (e) {\n        reject(e);\n      }\n    }\n    function step(result) {\n      result.done ? resolve(result.value) : adopt(result.value).then(fulfilled, rejected);\n    }\n    step((generator = generator.apply(thisArg, _arguments || [])).next());\n  });\n};\n/**\n * The web3 accounts package contains functions to generate Ethereum accounts and sign transactions & data.\n *\n * For using accounts functions, first install Web3 package using `npm i web3` or `yarn add web3` based on your package manager usage.\n * After that, Accounts functions will be available as mentioned in following snippet.\n * ```ts\n * import {Web3} from 'web3';\n *\n * const web3 = new Web3();\n * const account = web3.eth.accounts.create();\n * const result = web3.eth.accounts.hashMessage(\"Test Message\");\n *\n * ```\n *\n * For using individual package install `web3-eth-accounts` package using `npm i web3-eth-accounts` or `yarn add web3-eth-accounts` and only import required functions.\n * This is more efficient approach for building lightweight applications.\n * ```ts\n * import {create,hashMessage} from 'web3-eth-accounts';\n *\n * const account = create();\n * const result = hashMessage(\"Test Message\");\n *\n * ```\n * @module Accounts\n *\n */\nimport { decrypt as createDecipheriv, encrypt as createCipheriv } from 'ethereum-cryptography/aes.js';\nimport { pbkdf2Sync } from 'ethereum-cryptography/pbkdf2.js';\nimport { scryptSync } from 'ethereum-cryptography/scrypt.js';\nimport { InvalidKdfError, InvalidPasswordError, InvalidPrivateKeyError, InvalidSignatureError, IVLengthError, KeyDerivationError, KeyStoreVersionError, PBKDF2IterationsError, PrivateKeyLengthError, TransactionSigningError, UndefinedRawTransactionError } from 'web3-errors';\nimport { bytesToUint8Array, bytesToHex, fromUtf8, hexToBytes, isUint8Array, numberToHex, randomBytes, sha3Raw, toChecksumAddress, uint8ArrayConcat, utf8ToHex, uuidV4 } from 'web3-utils';\nimport { isHexStrict, isNullish, isString, validator } from 'web3-validator';\nimport { secp256k1 } from './tx/constants.js';\nimport { keyStoreSchema } from './schemas.js';\nimport { TransactionFactory } from './tx/transactionFactory.js';\n/**\n * Get the private key Uint8Array after the validation.\n * Note: This function is not exported through main web3 package, so for using it directly import from accounts package.\n * @param data - Private key\n * @param ignoreLength - Optional, ignore length check during validation\n * @returns The Uint8Array private key\n *\n * ```ts\n * parseAndValidatePrivateKey(\"0x08c673022000ece7964ea4db2d9369c50442b2869cbd8fc21baaca59e18f642c\")\n *\n * > Uint8Array(32) [\n * 186,  26, 143, 168, 235, 179,  90,  75,\n * 101,  63,  84, 221, 152, 150,  30, 203,\n *   8, 113,  94, 226,  53, 213, 216,   5,\n * 194, 159,  17,  53, 219,  97, 121, 248\n * ]\n *\n * ```\n */\nexport const parseAndValidatePrivateKey = (data, ignoreLength) => {\n  let privateKeyUint8Array;\n  // To avoid the case of 1 character less in a hex string which is prefixed with '0' by using 'bytesToUint8Array'\n  if (!ignoreLength && typeof data === 'string' && isHexStrict(data) && data.length !== 66) {\n    throw new PrivateKeyLengthError();\n  }\n  try {\n    privateKeyUint8Array = isUint8Array(data) ? data : bytesToUint8Array(data);\n  } catch (_a) {\n    throw new InvalidPrivateKeyError();\n  }\n  if (!ignoreLength && privateKeyUint8Array.byteLength !== 32) {\n    throw new PrivateKeyLengthError();\n  }\n  return privateKeyUint8Array;\n};\n/**\n *\n * Hashes the given message. The data will be `UTF-8 HEX` decoded and enveloped as follows:\n * `\"\\x19Ethereum Signed Message:\\n\" + message.length + message` and hashed using keccak256.\n *\n * @param message - A message to hash, if its HEX it will be UTF8 decoded.\n * @param skipPrefix - (default: false) If true, the message will be not prefixed with \"\\x19Ethereum Signed Message:\\n\" + message.length\n * @returns The hashed message\n *\n * ```ts\n * web3.eth.accounts.hashMessage(\"Hello world\")\n *\n * > \"0x8144a6fa26be252b86456491fbcd43c1de7e022241845ffea1c3df066f7cfede\"\n *\n * web3.eth.accounts.hashMessage(web3.utils.utf8ToHex(\"Hello world\")) // Will be hex decoded in hashMessage\n *\n * > \"0x8144a6fa26be252b86456491fbcd43c1de7e022241845ffea1c3df066f7cfede\"\n *\n * web3.eth.accounts.hashMessage(\"Hello world\", true)\n *\n * > \"0xed6c11b0b5b808960df26f5bfc471d04c1995b0ffd2055925ad1be28d6baadfd\"\n * ```\n */\nexport const hashMessage = (message, skipPrefix = false) => {\n  const messageHex = isHexStrict(message) ? message : utf8ToHex(message);\n  const messageBytes = hexToBytes(messageHex);\n  const preamble = hexToBytes(fromUtf8(`\\x19Ethereum Signed Message:\\n${messageBytes.byteLength}`));\n  const ethMessage = skipPrefix ? messageBytes : uint8ArrayConcat(preamble, messageBytes);\n  return sha3Raw(ethMessage); // using keccak in web3-utils.sha3Raw instead of SHA3 (NIST Standard) as both are different\n};\n/**\n * Takes a hash of a message and a private key, signs the message using the SECP256k1 elliptic curve algorithm, and returns the signature components.\n * @param hash - The hash of the message to be signed, represented as a hexadecimal string.\n * @param privateKey - The private key used to sign the message, represented as a byte array.\n * @returns - The signature Object containing the message, messageHash, signature r, s, v\n */\nexport const signMessageWithPrivateKey = (hash, privateKey) => {\n  const privateKeyUint8Array = parseAndValidatePrivateKey(privateKey);\n  const signature = secp256k1.sign(hash.substring(2), privateKeyUint8Array);\n  const signatureBytes = signature.toCompactRawBytes();\n  const r = signature.r.toString(16).padStart(64, '0');\n  const s = signature.s.toString(16).padStart(64, '0');\n  const v = signature.recovery + 27;\n  return {\n    messageHash: hash,\n    v: numberToHex(v),\n    r: `0x${r}`,\n    s: `0x${s}`,\n    signature: `${bytesToHex(signatureBytes)}${v.toString(16)}`\n  };\n};\n/**\n * Signs arbitrary data with a given private key.\n * :::info\n * The value passed as the data parameter will be UTF-8 HEX decoded and wrapped as follows: \"\\\\x19Ethereum Signed Message:\\\\n\" + message.length + message\n * :::\n\n * @param data - The data to sign\n * @param privateKey - The 32 byte private key to sign with\n * @returns The signature Object containing the message, messageHash, signature r, s, v\n *\n * ```ts\n * web3.eth.accounts.sign('Some data', '0x4c0883a69102937d6231471b5dbb6204fe5129617082792ae468d01a3f362318')\n * > {\n * message: 'Some data',\n * messageHash: '0x1da44b586eb0729ff70a73c326926f6ed5a25f5b056e7f47fbc6e58d86871655',\n * v: '0x1c',\n * r: '0xb91467e570a6466aa9e9876cbcd013baba02900b8979d43fe208a4a4f339f5fd',\n * s: '0x6007e74cd82e037b800186422fc2da167c747ef045e5d18a5f5d4300f8e1a029',\n * signature: '0xb91467e570a6466aa9e9876cbcd013baba02900b8979d43fe208a4a4f339f5fd6007e74cd82e037b800186422fc2da167c747ef045e5d18a5f5d4300f8e1a0291c'\n * }\n * ```\n */\nexport const sign = (data, privateKey) => {\n  const hash = hashMessage(data);\n  const {\n    messageHash,\n    v,\n    r,\n    s,\n    signature\n  } = signMessageWithPrivateKey(hash, privateKey);\n  return {\n    message: data,\n    messageHash,\n    v,\n    r,\n    s,\n    signature\n  };\n};\n/**\n * Signs raw data with a given private key without adding the Ethereum-specific prefix.\n *\n * @param data - The raw data to sign. If it's a hex string, it will be used as-is. Otherwise, it will be UTF-8 encoded.\n * @param privateKey - The 32 byte private key to sign with\n * @returns The signature Object containing the message, messageHash, signature r, s, v\n *\n * ```ts\n * web3.eth.accounts.signRaw('Some data', '0x4c0883a69102937d6231471b5dbb6204fe5129617082792ae468d01a3f362318')\n * > {\n *   message: 'Some data',\n *   messageHash: '0x43a26051362b8040b289abe93334a5e3662751aa691185ae9e9a2e1e0c169350',\n *   v: '0x1b',\n *   r: '0x93da7e2ddd6b2ff1f5af0c752f052ed0d7d5bff19257db547a69cd9a879b37d4',\n *   s: '0x334485e42b33815fd2cf8a245a5393b282214060844a9681495df2257140e75c',\n *   signature: '0x93da7e2ddd6b2ff1f5af0c752f052ed0d7d5bff19257db547a69cd9a879b37d4334485e42b33815fd2cf8a245a5393b282214060844a9681495df2257140e75c1b'\n * }\n * ```\n */\nexport const signRaw = (data, privateKey) => {\n  // Hash the message without the Ethereum-specific prefix\n  const hash = hashMessage(data, true);\n  // Sign the hash with the private key\n  const {\n    messageHash,\n    v,\n    r,\n    s,\n    signature\n  } = signMessageWithPrivateKey(hash, privateKey);\n  return {\n    message: data,\n    messageHash,\n    v,\n    r,\n    s,\n    signature\n  };\n};\n/**\n * Signs an Ethereum transaction with a given private key.\n *\n * @param transaction - The transaction, must be a legacy, EIP2930 or EIP 1559 transaction type\n * @param privateKey -  The private key to import. This is 32 bytes of random data.\n * @returns A signTransactionResult object that contains message hash, r, s, v, transaction hash and raw transaction.\n *\n * This function is not stateful here. We need network access to get the account `nonce` and `chainId` to sign the transaction.\n * This function will rely on user to provide the full transaction to be signed. If you want to sign a partial transaction object\n * Use {@link Web3.eth.accounts.sign} instead.\n *\n * Signing a legacy transaction\n * ```ts\n * import {signTransaction, Transaction} from 'web3-eth-accounts';\n *\n * signTransaction(new Transaction({\n *\tto: '0x118C2E5F57FD62C2B5b46a5ae9216F4FF4011a07',\n *\tvalue: '0x186A0',\n *\tgasLimit: '0x520812',\n *\tgasPrice: '0x09184e72a000',\n *\tdata: '',\n *\tchainId: 1,\n *\tnonce: 0 }),\n * '0x4c0883a69102937d6231471b5dbb6204fe5129617082792ae468d01a3f362318')\n *\n * > {\n * messageHash: '0x28b7b75f7ba48d588a902c1ff4d5d13cc0ca9ac0aaa39562368146923fb853bf',\n * v: '0x25',\n * r: '0x601b0017b0e20dd0eeda4b895fbc1a9e8968990953482214f880bae593e71b5',\n * s: '0x690d984493560552e3ebdcc19a65b9c301ea9ddc82d3ab8cfde60485fd5722ce',\n * rawTransaction: '0xf869808609184e72a0008352081294118c2e5f57fd62c2b5b46a5ae9216f4ff4011a07830186a08025a00601b0017b0e20dd0eeda4b895fbc1a9e8968990953482214f880bae593e71b5a0690d984493560552e3ebdcc19a65b9c301ea9ddc82d3ab8cfde60485fd5722ce',\n * transactionHash: '0xc5d2460186f7233c927e7db2dcc703c0e500b653ca82273b7bfad8045d85a470'\n * ```\n *\n * Signing an eip 1559 transaction\n * ```ts\n * import {signTransaction, Transaction} from 'web3-eth-accounts';\n *\n * signTransaction(new Transaction({\n *\tto: '0xF0109fC8DF283027b6285cc889F5aA624EaC1F55',\n *\tmaxPriorityFeePerGas: '0x3B9ACA00',\n *\tmaxFeePerGas: '0xB2D05E00',\n *\tgasLimit: '0x6A4012',\n *\tvalue: '0x186A0',\n *\tdata: '',\n *\tchainId: 1,\n *\tnonce: 0}),\n * \"0x4c0883a69102937d6231471b5dbb6204fe5129617082792ae468d01a3f362318\")\n * > {\n *  messageHash: '0x5744f24d5f0aff6c70487c8e85adf07d8564e50b08558788f00479611d7bae5f',\n * v: '0x25',\n * r: '0x78a5a6b2876c3985f90f82073d18d57ac299b608cc76a4ba697b8bb085048347',\n * s: '0x9cfcb40cc7d505ed17ff2d3337b51b066648f10c6b7e746117de69b2eb6358d',\n * rawTransaction: '0xf8638080836a401294f0109fc8df283027b6285cc889f5aa624eac1f55830186a08025a078a5a6b2876c3985f90f82073d18d57ac299b608cc76a4ba697b8bb085048347a009cfcb40cc7d505ed17ff2d3337b51b066648f10c6b7e746117de69b2eb6358d',\n * transactionHash: '0xc5d2460186f7233c927e7db2dcc703c0e500b653ca82273b7bfad8045d85a470'\n * }\n * ```\n *\n * Signing an eip 2930 transaction\n * ```ts\n * import {signTransaction, Transaction} from 'web3-eth-accounts';\n *\n * signTransaction(new Transaction ({\n *\tchainId: 1,\n *\tnonce: 0,\n *\tgasPrice: '0x09184e72a000',\n *\tgasLimit: '0x2710321',\n *\tto: '0xF0109fC8DF283027b6285cc889F5aA624EaC1F55',\n *\tvalue: '0x186A0',\n *\tdata: '',\n *\taccessList: [\n *\t\t{\n *\t\t\taddress: '0x0000000000000000000000000000000000000101',\n *\t\t\tstorageKeys: [\n *\t\t\t\t'0x0000000000000000000000000000000000000000000000000000000000000000',\n *\t\t\t\t'0x00000000000000000000000000000000000000000000000000000000000060a7',\n *\t\t\t],\n *\t\t},\n *\t],\n * }),\"0x4c0883a69102937d6231471b5dbb6204fe5129617082792ae468d01a3f362318\")\n *\n * > {\n * messageHash: '0xc55ea24bdb4c379550a7c9a6818ac39ca33e75bc78ddb862bd82c31cc1c7a073',\n * v: '0x26',\n * r: '0x27344e77871c8b2068bc998bf28e0b5f9920867a69c455b2ed0c1c150fec098e',\n * s: '0x519f0130a1d662841d4a28082e9c9bb0a15e0e59bb46cfc39a52f0e285dec6b9',\n * rawTransaction: '0xf86a808609184e72a000840271032194f0109fc8df283027b6285cc889f5aa624eac1f55830186a08026a027344e77871c8b2068bc998bf28e0b5f9920867a69c455b2ed0c1c150fec098ea0519f0130a1d662841d4a28082e9c9bb0a15e0e59bb46cfc39a52f0e285dec6b9',\n * transactionHash: '0xc5d2460186f7233c927e7db2dcc703c0e500b653ca82273b7bfad8045d85a470'\n * }\n * ```\n */\nexport const signTransaction = (transaction, privateKey) => __awaiter(void 0, void 0, void 0, function* () {\n  const signedTx = transaction.sign(hexToBytes(privateKey));\n  if (isNullish(signedTx.v) || isNullish(signedTx.r) || isNullish(signedTx.s)) throw new TransactionSigningError('Signer Error');\n  const validationErrors = signedTx.validate(true);\n  if (validationErrors.length > 0) {\n    let errorString = 'Signer Error ';\n    for (const validationError of validationErrors) {\n      errorString += `${errorString} ${validationError}.`;\n    }\n    throw new TransactionSigningError(errorString);\n  }\n  const rawTx = bytesToHex(signedTx.serialize());\n  const txHash = sha3Raw(rawTx); // using keccak in web3-utils.sha3Raw instead of SHA3 (NIST Standard) as both are different\n  return {\n    messageHash: bytesToHex(signedTx.getMessageToSign(true)),\n    v: `0x${signedTx.v.toString(16)}`,\n    r: `0x${signedTx.r.toString(16).padStart(64, '0')}`,\n    s: `0x${signedTx.s.toString(16).padStart(64, '0')}`,\n    rawTransaction: rawTx,\n    transactionHash: bytesToHex(txHash)\n  };\n});\n/**\n * Recovers the Ethereum address which was used to sign the given RLP encoded transaction.\n *\n * @param rawTransaction - The hex string having RLP encoded transaction\n * @returns The Ethereum address used to sign this transaction\n * ```ts\n * web3.eth.accounts.recoverTransaction('0xf869808504e3b29200831e848094f0109fc8df283027b6285cc889f5aa624eac1f55843b9aca008025a0c9cf86333bcb065d140032ecaab5d9281bde80f21b9687b3e94161de42d51895a0727a108a0b8d101465414033c3f705a9c7b826e596766046ee1183dbc8aeaa68');\n * > \"0x2c7536E3605D9C16a7a3D7b1898e529396a65c23\"\n * ```\n */\nexport const recoverTransaction = rawTransaction => {\n  if (isNullish(rawTransaction)) throw new UndefinedRawTransactionError();\n  const tx = TransactionFactory.fromSerializedData(hexToBytes(rawTransaction));\n  return toChecksumAddress(tx.getSenderAddress().toString());\n};\n/**\n * Recovers the Ethereum address which was used to sign the given data\n *\n * @param data - Either a signed message, hash, or the {@link signatureObject}\n * @param signature - The raw RLP encoded signature\n * @param signatureOrV - signature or V\n * @param prefixedOrR - prefixed or R\n * @param s - S value in signature\n * @param prefixed - (default: false) If the last parameter is true, the given message will NOT automatically be prefixed with `\"\\\\x19Ethereum Signed Message:\\\\n\" + message.length + message`, and assumed to be already prefixed and hashed.\n * @returns The Ethereum address used to sign this data\n *\n * ```ts\n * const data = 'Some data';\n * const sigObj = web3.eth.accounts.sign(data, '0xbe6383dad004f233317e46ddb46ad31b16064d14447a95cc1d8c8d4bc61c3728')\n *\n * > {\n *   message: 'Some data',\n *   messageHash: '0x1da44b586eb0729ff70a73c326926f6ed5a25f5b056e7f47fbc6e58d86871655',\n *   v: '0x1b',\n *   r: '0xa8037a6116c176a25e6fc224947fde9e79a2deaa0dd8b67b366fbdfdbffc01f9',\n *   s: '0x53e41351267b20d4a89ebfe9c8f03c04de9b345add4a52f15bd026b63c8fb150',\n *   signature: '0xa8037a6116c176a25e6fc224947fde9e79a2deaa0dd8b67b366fbdfdbffc01f953e41351267b20d4a89ebfe9c8f03c04de9b345add4a52f15bd026b63c8fb1501b'\n * }\n *\n * // now recover\n * web3.eth.accounts.recover(data, sigObj.v, sigObj.r, sigObj.s)\n *\n * > 0xEB014f8c8B418Db6b45774c326A0E64C78914dC0\n * ```\n */\nexport const recover = (data, signatureOrV, prefixedOrR, s, prefixed) => {\n  if (typeof data === 'object') {\n    const signatureStr = `${data.r}${data.s.slice(2)}${data.v.slice(2)}`;\n    return recover(data.messageHash, signatureStr, prefixedOrR);\n  }\n  if (typeof signatureOrV === 'string' && typeof prefixedOrR === 'string' && !isNullish(s)) {\n    const signatureStr = `${prefixedOrR}${s.slice(2)}${signatureOrV.slice(2)}`;\n    return recover(data, signatureStr, prefixed);\n  }\n  if (isNullish(signatureOrV)) throw new InvalidSignatureError('signature string undefined');\n  const V_INDEX = 130; // r = first 32 bytes, s = second 32 bytes, v = last byte of signature\n  const hashedMessage = prefixedOrR ? data : hashMessage(data);\n  let v = parseInt(signatureOrV.substring(V_INDEX), 16); // 0x + r + s + v\n  if (v > 26) {\n    v -= 27;\n  }\n  const ecPublicKey = secp256k1.Signature.fromCompact(signatureOrV.slice(2, V_INDEX)).addRecoveryBit(v).recoverPublicKey(hashedMessage.replace('0x', '')).toRawBytes(false);\n  const publicHash = sha3Raw(ecPublicKey.subarray(1));\n  const address = toChecksumAddress(`0x${publicHash.slice(-40)}`);\n  return address;\n};\n/**\n * Get the ethereum Address from a private key\n *\n * @param privateKey - String or Uint8Array of 32 bytes\n * @param ignoreLength - if true, will not error check length\n * @returns The Ethereum address\n * @example\n * ```ts\n * web3.eth.accounts.privateKeyToAddress(\"0xbe6383dad004f233317e46ddb46ad31b16064d14447a95cc1d8c8d4bc61c3728\")\n *\n * > \"0xEB014f8c8B418Db6b45774c326A0E64C78914dC0\"\n * ```\n */\nexport const privateKeyToAddress = privateKey => {\n  const privateKeyUint8Array = parseAndValidatePrivateKey(privateKey);\n  // Get public key from private key in compressed format\n  const publicKey = secp256k1.getPublicKey(privateKeyUint8Array, false);\n  // Uncompressed ECDSA public key contains the prefix `0x04` which is not used in the Ethereum public key\n  const publicKeyHash = sha3Raw(publicKey.slice(1));\n  // The hash is returned as 256 bits (32 bytes) or 64 hex characters\n  // To get the address, take the last 20 bytes of the public hash\n  const address = publicKeyHash.slice(-40);\n  return toChecksumAddress(`0x${address}`);\n};\n/**\n * Get the public key from a private key\n *\n * @param privateKey - String or Uint8Array of 32 bytes\n * @param isCompressed - if true, will generate a 33 byte compressed public key instead of a 65 byte public key\n * @returns The public key\n * @example\n * ```ts\n * web3.eth.accounts.privateKeyToPublicKey(\"0x1e046a882bb38236b646c9f135cf90ad90a140810f439875f2a6dd8e50fa261f\", true)\n *\n * > \"0x42beb65f179720abaa3ec9a70a539629cbbc5ec65bb57e7fc78977796837e537662dd17042e6449dc843c281067a4d6d8d1a1775a13c41901670d5de7ee6503a\" // uncompressed public key\n * ```\n */\nexport const privateKeyToPublicKey = (privateKey, isCompressed) => {\n  const privateKeyUint8Array = parseAndValidatePrivateKey(privateKey);\n  // Get public key from private key in compressed format\n  return `0x${bytesToHex(secp256k1.getPublicKey(privateKeyUint8Array, isCompressed)).slice(4)}`; // 0x and removing compression byte\n};\n/**\n * encrypt a private key with a password, returns a V3 JSON Keystore\n *\n * Read more: https://github.com/ethereum/wiki/wiki/Web3-Secret-Storage-Definition\n *\n * @param privateKey - The private key to encrypt, 32 bytes.\n * @param password - The password used for encryption.\n * @param options - Options to configure to encrypt the keystore either scrypt or pbkdf2\n * @returns Returns a V3 JSON Keystore\n *\n * Encrypt using scrypt options:\n * ```ts\n *\n * web3.eth.accounts.encrypt(\n *    '0x67f476289210e3bef3c1c75e4de993ff0a00663df00def84e73aa7411eac18a6',\n *    '123',\n *    {\n *        n: 8192,\n *\t    iv: web3.utils.hexToBytes('0xbfb43120ae00e9de110f8325143a2709'),\n *\t    salt: web3.utils.hexToBytes('0x210d0ec956787d865358ac45716e6dd42e68d48e346d795746509523aeb477dd'),\n *\t}).then(console.log)\n *\n * > {\n * version: 3,\n * id: 'c0cb0a94-4702-4492-b6e6-eb2ac404344a',\n * address: 'cda9a91875fc35c8ac1320e098e584495d66e47c',\n * crypto: {\n *   ciphertext: 'cb3e13e3281ff3861a3f0257fad4c9a51b0eb046f9c7821825c46b210f040b8f',\n *   cipherparams: { iv: 'bfb43120ae00e9de110f8325143a2709' },\n *   cipher: 'aes-128-ctr',\n *   kdf: 'scrypt',\n *   kdfparams: {\n *     n: 8192,\n *     r: 8,\n *     p: 1,\n *     dklen: 32,\n *     salt: '210d0ec956787d865358ac45716e6dd42e68d48e346d795746509523aeb477dd'\n *   },\n *   mac: 'efbf6d3409f37c0084a79d5fdf9a6f5d97d11447517ef1ea8374f51e581b7efd'\n * }\n *}\n *```\n *\n * Encrypting using pbkdf2 options:\n * ```ts\n * web3.eth.accounts.encrypt('0x348ce564d427a3311b6536bbcff9390d69395b06ed6c486954e971d960fe8709',\n *'123',\n *{\n *\tiv: 'bfb43120ae00e9de110f8325143a2709',\n *\tsalt: '210d0ec956787d865358ac45716e6dd42e68d48e346d795746509523aeb477dd',\n *\tc: 262144,\n *\tkdf: 'pbkdf2',\n *}).then(console.log)\n *\n * >\n * {\n *   version: 3,\n *   id: '77381417-0973-4e4b-b590-8eb3ace0fe2d',\n *   address: 'b8ce9ab6943e0eced004cde8e3bbed6568b2fa01',\n *   crypto: {\n *     ciphertext: '76512156a34105fa6473ad040c666ae7b917d14c06543accc0d2dc28e6073b12',\n *     cipherparams: { iv: 'bfb43120ae00e9de110f8325143a2709' },\n *     cipher: 'aes-128-ctr',\n *     kdf: 'pbkdf2',\n *     kdfparams: {\n *       dklen: 32,\n *       salt: '210d0ec956787d865358ac45716e6dd42e68d48e346d795746509523aeb477dd',\n *       c: 262144,\n *       prf: 'hmac-sha256'\n *     },\n *   mac: '46eb4884e82dc43b5aa415faba53cc653b7038e9d61cc32fd643cf8c396189b7'\n *   }\n * }\n *```\n */\nexport const encrypt = (privateKey, password, options) => __awaiter(void 0, void 0, void 0, function* () {\n  var _a, _b, _c, _d, _e, _f, _g;\n  const privateKeyUint8Array = parseAndValidatePrivateKey(privateKey);\n  // if given salt or iv is a string, convert it to a Uint8Array\n  let salt;\n  if (options === null || options === void 0 ? void 0 : options.salt) {\n    salt = typeof options.salt === 'string' ? hexToBytes(options.salt) : options.salt;\n  } else {\n    salt = randomBytes(32);\n  }\n  if (!(isString(password) || isUint8Array(password))) {\n    throw new InvalidPasswordError();\n  }\n  const uint8ArrayPassword = typeof password === 'string' ? hexToBytes(utf8ToHex(password)) : password;\n  let initializationVector;\n  if (options === null || options === void 0 ? void 0 : options.iv) {\n    initializationVector = typeof options.iv === 'string' ? hexToBytes(options.iv) : options.iv;\n    if (initializationVector.length !== 16) {\n      throw new IVLengthError();\n    }\n  } else {\n    initializationVector = randomBytes(16);\n  }\n  const kdf = (_a = options === null || options === void 0 ? void 0 : options.kdf) !== null && _a !== void 0 ? _a : 'scrypt';\n  let derivedKey;\n  let kdfparams;\n  // derive key from key derivation function\n  if (kdf === 'pbkdf2') {\n    kdfparams = {\n      dklen: (_b = options === null || options === void 0 ? void 0 : options.dklen) !== null && _b !== void 0 ? _b : 32,\n      salt: bytesToHex(salt).replace('0x', ''),\n      c: (_c = options === null || options === void 0 ? void 0 : options.c) !== null && _c !== void 0 ? _c : 262144,\n      prf: 'hmac-sha256'\n    };\n    if (kdfparams.c < 1000) {\n      // error when c < 1000, pbkdf2 is less secure with less iterations\n      throw new PBKDF2IterationsError();\n    }\n    derivedKey = pbkdf2Sync(uint8ArrayPassword, salt, kdfparams.c, kdfparams.dklen, 'sha256');\n  } else if (kdf === 'scrypt') {\n    kdfparams = {\n      n: (_d = options === null || options === void 0 ? void 0 : options.n) !== null && _d !== void 0 ? _d : 8192,\n      r: (_e = options === null || options === void 0 ? void 0 : options.r) !== null && _e !== void 0 ? _e : 8,\n      p: (_f = options === null || options === void 0 ? void 0 : options.p) !== null && _f !== void 0 ? _f : 1,\n      dklen: (_g = options === null || options === void 0 ? void 0 : options.dklen) !== null && _g !== void 0 ? _g : 32,\n      salt: bytesToHex(salt).replace('0x', '')\n    };\n    derivedKey = scryptSync(uint8ArrayPassword, salt, kdfparams.n, kdfparams.p, kdfparams.r, kdfparams.dklen);\n  } else {\n    throw new InvalidKdfError();\n  }\n  const cipher = yield createCipheriv(privateKeyUint8Array, derivedKey.slice(0, 16), initializationVector, 'aes-128-ctr');\n  const ciphertext = bytesToHex(cipher).slice(2);\n  const mac = sha3Raw(uint8ArrayConcat(derivedKey.slice(16, 32), cipher)).replace('0x', '');\n  return {\n    version: 3,\n    id: uuidV4(),\n    address: privateKeyToAddress(privateKeyUint8Array).toLowerCase().replace('0x', ''),\n    crypto: {\n      ciphertext,\n      cipherparams: {\n        iv: bytesToHex(initializationVector).replace('0x', '')\n      },\n      cipher: 'aes-128-ctr',\n      kdf,\n      kdfparams,\n      mac\n    }\n  };\n});\n/**\n * Get an Account object from the privateKey\n *\n * @param privateKey - String or Uint8Array of 32 bytes\n * @param ignoreLength - if true, will not error check length\n * @returns A Web3Account object\n *\n * :::info\n * The `Web3Account.signTransaction` is not stateful if directly imported from accounts package and used. Network access is required to get the account `nonce` and `chainId` to sign the transaction, so use {@link Web3.eth.accounts.signTransaction} for signing transactions.\n * ::::\n *\n * ```ts\n * web3.eth.accounts.privateKeyToAccount(\"0x348ce564d427a3311b6536bbcff9390d69395b06ed6c486954e971d960fe8709\");\n *\n * >    {\n * \t\t\taddress: '0xb8CE9ab6943e0eCED004cDe8e3bBed6568B2Fa01',\n * \t\t\tprivateKey: '0x348ce564d427a3311b6536bbcff9390d69395b06ed6c486954e971d960fe8709',\n * \t\t\tsign,\n * \t\t\tsignTransaction,\n * \t\t\tencrypt,\n * \t}\n * ```\n */\nexport const privateKeyToAccount = (privateKey, ignoreLength) => {\n  const privateKeyUint8Array = parseAndValidatePrivateKey(privateKey, ignoreLength);\n  return {\n    address: privateKeyToAddress(privateKeyUint8Array),\n    privateKey: bytesToHex(privateKeyUint8Array),\n    // eslint-disable-next-line @typescript-eslint/no-unused-vars\n    signTransaction: _tx => {\n      throw new TransactionSigningError('Do not have network access to sign the transaction');\n    },\n    sign: data => sign(typeof data === 'string' ? data : JSON.stringify(data), privateKeyUint8Array),\n    encrypt: (password, options) => __awaiter(void 0, void 0, void 0, function* () {\n      return encrypt(privateKeyUint8Array, password, options);\n    })\n  };\n};\n/**\n *\n * Generates and returns a Web3Account object that includes the private and public key\n * For creation of private key, it uses an audited package ethereum-cryptography/secp256k1\n * that is cryptographically secure random number with certain characteristics.\n * Read more: https://www.npmjs.com/package/ethereum-cryptography#secp256k1-curve\n *\n * @returns A Web3Account object\n * ```ts\n * web3.eth.accounts.create();\n * {\n * address: '0xbD504f977021b5E5DdccD8741A368b147B3B38bB',\n * privateKey: '0x964ced1c69ad27a311c432fdc0d8211e987595f7eb34ab405a5f16bdc9563ec5',\n * signTransaction: [Function: signTransaction],\n * sign: [Function: sign],\n * encrypt: [AsyncFunction: encrypt]\n * }\n * ```\n */\nexport const create = () => {\n  const privateKey = secp256k1.utils.randomPrivateKey();\n  return privateKeyToAccount(`${bytesToHex(privateKey)}`);\n};\n/**\n * Decrypts a v3 keystore JSON, and creates the account.\n *\n * @param keystore - the encrypted Keystore object or string to decrypt\n * @param password - The password that was used for encryption\n * @param nonStrict - if true and given a json string, the keystore will be parsed as lowercase.\n * @returns Returns the decrypted Web3Account object\n * Decrypting scrypt\n *\n * ```ts\n * web3.eth.accounts.decrypt({\n *   version: 3,\n *   id: 'c0cb0a94-4702-4492-b6e6-eb2ac404344a',\n *   address: 'cda9a91875fc35c8ac1320e098e584495d66e47c',\n *   crypto: {\n *   ciphertext: 'cb3e13e3281ff3861a3f0257fad4c9a51b0eb046f9c7821825c46b210f040b8f',\n *      cipherparams: { iv: 'bfb43120ae00e9de110f8325143a2709' },\n *      cipher: 'aes-128-ctr',\n *      kdf: 'scrypt',\n *      kdfparams: {\n *        n: 8192,\n *        r: 8,\n *        p: 1,\n *        dklen: 32,\n *        salt: '210d0ec956787d865358ac45716e6dd42e68d48e346d795746509523aeb477dd'\n *      },\n *      mac: 'efbf6d3409f37c0084a79d5fdf9a6f5d97d11447517ef1ea8374f51e581b7efd'\n *    }\n *   }, '123').then(console.log);\n *\n *\n * > {\n * address: '0xcdA9A91875fc35c8Ac1320E098e584495d66e47c',\n * privateKey: '67f476289210e3bef3c1c75e4de993ff0a00663df00def84e73aa7411eac18a6',\n * signTransaction: [Function: signTransaction],\n * sign: [Function: sign],\n * encrypt: [AsyncFunction: encrypt]\n * }\n * ```\n */\nexport const decrypt = (keystore, password, nonStrict) => __awaiter(void 0, void 0, void 0, function* () {\n  const json = typeof keystore === 'object' ? keystore : JSON.parse(nonStrict ? keystore.toLowerCase() : keystore);\n  validator.validateJSONSchema(keyStoreSchema, json);\n  if (json.version !== 3) throw new KeyStoreVersionError();\n  const uint8ArrayPassword = typeof password === 'string' ? hexToBytes(utf8ToHex(password)) : password;\n  validator.validate(['bytes'], [uint8ArrayPassword]);\n  let derivedKey;\n  if (json.crypto.kdf === 'scrypt') {\n    const kdfparams = json.crypto.kdfparams;\n    const uint8ArraySalt = typeof kdfparams.salt === 'string' ? hexToBytes(kdfparams.salt) : kdfparams.salt;\n    derivedKey = scryptSync(uint8ArrayPassword, uint8ArraySalt, kdfparams.n, kdfparams.p, kdfparams.r, kdfparams.dklen);\n  } else if (json.crypto.kdf === 'pbkdf2') {\n    const kdfparams = json.crypto.kdfparams;\n    const uint8ArraySalt = typeof kdfparams.salt === 'string' ? hexToBytes(kdfparams.salt) : kdfparams.salt;\n    derivedKey = pbkdf2Sync(uint8ArrayPassword, uint8ArraySalt, kdfparams.c, kdfparams.dklen, 'sha256');\n  } else {\n    throw new InvalidKdfError();\n  }\n  const ciphertext = hexToBytes(json.crypto.ciphertext);\n  const mac = sha3Raw(uint8ArrayConcat(derivedKey.slice(16, 32), ciphertext)).replace('0x', '');\n  if (mac !== json.crypto.mac) {\n    throw new KeyDerivationError();\n  }\n  const seed = yield createDecipheriv(hexToBytes(json.crypto.ciphertext), derivedKey.slice(0, 16), hexToBytes(json.crypto.cipherparams.iv));\n  return privateKeyToAccount(seed);\n});\n//# sourceMappingURL=account.js.map","map":null,"metadata":{},"sourceType":"module","externalDependencies":[]}